:020000040000FA
:02000000812855
:040002000034003492
:0800080001290B308F00DB30F1
:100010008E0010140800EF30C000E830C10064000A
:10002000112812286400C10B0F28C00B0D281828B6
:1000300019281A28640008006E30C000B530C100CD
:1000400064006400C10B2028C00B1E282728282824
:10005000640008003730C000B530C100640064009F
:10006000C10B2E28C00B2C2808001530C000ED3025
:10007000C1006400C10B3928C00B37286400080098
:100080000630C000CF30C1006400C10B4428C00B53
:1000900042284A2864000800D0000310D00D031045
:1000A000D00D0310D00D9F111F129F1250089F04F6
:1000B0000C130730D400D40B5B281F150C1F5E28CF
:1000C0000C13831603131E0883120313D1001E089A
:1000D000D2000800D301D801FF3051020319D80A19
:1000E0007D3051020318D80A0310520DD807580862
:1000F00008007C20880008008207003406345B3446
:10010000793400008316031383309F003F3085004D
:100110000130860089008701880181170117831249
:100120000313C1309F008701880189010230A200BA
:100130003030900005200B178B170130A300A0284A
:10014000AA0100304C206A20A400AB00AA070130AD
:100150004C206A20A500AC00AA0702304C206A207F
:10016000A600AD00AA0704304C206A20A700AE000C
:10017000AA0701302402031CA02801302502031C19
:10018000A02801302602031CA02801302702031CEE
:10019000A0280A302A02031CCE28A028091CD12836
:1001A000DB280130A3007920831603130C1483127B
:1001B00003130B16FF2824082602031CE028E4285A
:1001C0002408AB00A800E8282608AB00A800E8280F
:1001D00025082702031CED28F1282508AC00A900FA
:1001E000F5282708AC00A900F5280230A3007920E3
:1001F000831603130C14831203130B160029FF2814
:100200000029A0000308A1000C1809298B185A29FD
:100210006229023089060330230603195729A20BED
:1002200062290230A2000130230603191B29023083
:100230002306031943290301A406031D33290301DF
:10024000A506031D37290301A606031D3B2903014B
:10025000A706031D3F292B08A4002C08A5002D0884
:10026000A6002E08A700A403563087006229A50324
:10027000593087006229A603653087006229A703E9
:100280009530870062290301A806031D4F29030149
:10029000A906031D53292B08A8002C08A900A803B0
:1002A000663087006229A903993087006229FF30F0
:1002B000870662290330A3007920AA3087008B10BB
:0E02C0008B1162290C10210883002008090010
:02400E00393F38
:00000001FF
