:020000040000FA
:020000006A286C
:040002000034003492
:080008008C28EF30C000E83045
:10001000C10064000B280C286400C10B0928C00B28
:100020000728122813281428640008006E30C00026
:10003000B530C10064006400C10B1A28C00B182839
:1000400021282228640008003730C000B530C100E4
:1000500064006400C10B2828C00B26280800153056
:10006000C000ED30C1006400C10B3328C00B312843
:10007000640008000630C000CF30C1006400C10B2E
:100080003E28C00B3C28442864000800D000031020
:10009000D00D0310D00D0310D00D9F111F129F1211
:1000A00050089F040C130730D300D30B55281F159D
:1000B0000C1F58280C13831603131E0883120313F6
:1000C000D1001E08D200080066208800820779341B
:1000D00006345B3400008316031383309F003F30E7
:1000E00085008701880189010C1483120313C13034
:1000F0009F008701880189010230A2003030900002
:1001000086200B178B170130A30085280B308F003A
:10011000DB308E0010140800A0000308A100A20B21
:1001200095280230A200FF3089060C1021088300B8
:04013000200809009A
:02400E00393F38
:00000001FF
