:020000040000FA
:020000007F2857
:040002000034003492
:08000800EB280B308F00DB3008
:100010008E0010140800EF30C000E830C10064000A
:10002000112812286400C10B0F28C00B0D281828B6
:1000300019281A28640008006E30C000B530C100CD
:1000400064006400C10B2028C00B1E282728282824
:10005000640008003730C000B530C100640064009F
:10006000C10B2E28C00B2C2808001530C000ED3025
:10007000C1006400C10B3928C00B37286400080098
:100080000630C000CF30C1006400C10B4428C00B53
:1000900042284A2864000800D0000310D00D031045
:1000A000D00D0310D00D9F111F129F1250089F04F6
:1000B0000C130730D400D40B5B281F150C1F5E28CF
:1000C0000C13831603131E0883120313D1001E089A
:1000D000D2000800D301D801FF3051020319D80A19
:1000E0007D3051020318D80A0310520DD807580862
:1000F00008007B2088008207793406345B340000D6
:100100008316031383309F003F3085000130860043
:100110008900870188018117011783120313C130F9
:100120009F008701880189010230A20030309000D1
:100130000520831603130C14831203130B178B155E
:100140008B170130A300A428AA0100304C206A209C
:10015000A400AA0701304C206A20A500AA0702309B
:100160004C206A20A600AA0704304C206A20A70071
:10017000AA0701302402031CA42801302502031C15
:10018000A42801302602031CA42801302702031CE6
:10019000A4280A302A02031CCE28A428091C0128FE
:1001A000D228E92824082602031CD728DA282408A4
:1001B000A800DD282608A800DD2825082702031C42
:1001C000E228E5282508A900DD282708A900DD2860
:1001D000EA28E928EA28A0000308A1000C18F7285B
:1001E0000B18F328FE280330A3000B10FE28A20BE7
:1001F000FE280230A200FF308906FE280C102108DC
:0602000083002008090044
:02400E00393F38
:00000001FF
