:020000040000FA
:02000000812855
:040002000034003492
:08000800F8280B308F00DB30FB
:100010008E0010140800EF30C000E830C10064000A
:10002000112812286400C10B0F28C00B0D281828B6
:1000300019281A28640008006E30C000B530C100CD
:1000400064006400C10B2028C00B1E282728282824
:10005000640008003730C000B530C100640064009F
:10006000C10B2E28C00B2C2808001530C000ED3025
:10007000C1006400C10B3928C00B37286400080098
:100080000630C000CF30C1006400C10B4428C00B53
:1000900042284A2864000800D0000310D00D031045
:1000A000D00D0310D00D9F111F129F1250089F04F6
:1000B0000C130730D400D40B5B281F150C1F5E28CF
:1000C0000C13831603131E0883120313D1001E089A
:1000D000D2000800D301D801FF3051020319D80A19
:1000E0007D3051020318D80A0310520DD807580862
:1000F00008007C20880008008207003406345B3446
:10010000793400008316031383309F003F3085004D
:100110000130860089008701880181170117831249
:100120000313C1309F008701880189010230A200BA
:10013000303090000520831603130C148312031330
:100140000B178B158B170130A300A628AA010030CE
:100150004C206A20A400AB00AA0701304C206A2082
:10016000A500AC00AA0702304C206A20A600AD0012
:10017000AA0704304C206A20A700AE00AA0701306D
:100180002402031CA62801302502031CA6280130E6
:100190002602031CA62801302702031CA6280A30C9
:1001A0002A02031CD428A628091CD728DB280130E2
:1001B000A3007920F62824082602031CE028E3285F
:1001C0002408A800E6282608A800E6282508270213
:1001D000031CEB28EE282508A900F1282708A90010
:1001E000F1280230A30079200108F728F628F72823
:1001F000A0000308A1000C1800290B1836293A2981
:10020000A20B3A290230A200023089060301A4069B
:10021000031D26290301A506031D2A290301A6069D
:10022000031D2E290301A706031D32292B08A40054
:100230002C08A5002D08A6002E08A700A40B26292F
:10024000A50B2A29A60B2E29A70B3229A403563069
:1002500087003A29A503593087003A29A60365305B
:1002600087003A29A703953087003A290330A30075
:0E0270000B103A290C10210883002008090009
:02400E00393F38
:00000001FF
