:020000040000FA
:100000006428EF30C000E830C100640007280828E9
:100010006400C10B0528C00B03280E280F281028E8
:10002000640008006E30C000B530C1006400640098
:10003000C10B1628C00B14281D281E2864000800B8
:100040003730C000B530C10064006400C10B242803
:10005000C00B222808001530C000ED30C10064003C
:10006000C10B2F28C00B2D28640008000630C000EB
:10007000CF30C1006400C10B3A28C00B382840289B
:1000800064000800D0000310D00D0310D00D031041
:10009000D00D9F111F129F1250089F040C130730A0
:1000A000D300D30B51281F150C1F54280C13831693
:1000B00003131E0883120313D1001E08D200080088
:1000C0008207793406345B340000831603138330CF
:1000D0009F003F3085008701880189018312031347
:1000E000C1309F00870188018901023060208800AB
:0800F00004304220870078284B
:0400F800003400349C
:02400E00393F38
:00000001FF
